{
  "address": "0x00a35FD824c717879BF370E70AC6868b95870Dfb",
  "abi": [
    {
      "inputs": [
        {
          "internalType": "string",
          "name": "_name",
          "type": "string"
        },
        {
          "internalType": "string",
          "name": "_symbol",
          "type": "string"
        },
        {
          "internalType": "uint8",
          "name": "_decimals",
          "type": "uint8"
        },
        {
          "internalType": "address",
          "name": "_underlying",
          "type": "address"
        },
        {
          "internalType": "address",
          "name": "_vault",
          "type": "address"
        }
      ],
      "stateMutability": "nonpayable",
      "type": "constructor"
    },
    {
      "anonymous": false,
      "inputs": [
        {
          "indexed": true,
          "internalType": "address",
          "name": "owner",
          "type": "address"
        },
        {
          "indexed": true,
          "internalType": "address",
          "name": "spender",
          "type": "address"
        },
        {
          "indexed": false,
          "internalType": "uint256",
          "name": "value",
          "type": "uint256"
        }
      ],
      "name": "Approval",
      "type": "event"
    },
    {
      "anonymous": false,
      "inputs": [
        {
          "indexed": true,
          "internalType": "address",
          "name": "oldVault",
          "type": "address"
        },
        {
          "indexed": true,
          "internalType": "address",
          "name": "newVault",
          "type": "address"
        },
        {
          "indexed": true,
          "internalType": "uint256",
          "name": "effectiveTime",
          "type": "uint256"
        }
      ],
      "name": "LogChangeVault",
      "type": "event"
    },
    {
      "anonymous": false,
      "inputs": [
        {
          "indexed": true,
          "internalType": "bytes32",
          "name": "txhash",
          "type": "bytes32"
        },
        {
          "indexed": true,
          "internalType": "address",
          "name": "account",
          "type": "address"
        },
        {
          "indexed": false,
          "internalType": "uint256",
          "name": "amount",
          "type": "uint256"
        }
      ],
      "name": "LogSwapin",
      "type": "event"
    },
    {
      "anonymous": false,
      "inputs": [
        {
          "indexed": true,
          "internalType": "address",
          "name": "account",
          "type": "address"
        },
        {
          "indexed": true,
          "internalType": "address",
          "name": "bindaddr",
          "type": "address"
        },
        {
          "indexed": false,
          "internalType": "uint256",
          "name": "amount",
          "type": "uint256"
        }
      ],
      "name": "LogSwapout",
      "type": "event"
    },
    {
      "anonymous": false,
      "inputs": [
        {
          "indexed": true,
          "internalType": "address",
          "name": "from",
          "type": "address"
        },
        {
          "indexed": true,
          "internalType": "address",
          "name": "to",
          "type": "address"
        },
        {
          "indexed": false,
          "internalType": "uint256",
          "name": "value",
          "type": "uint256"
        }
      ],
      "name": "Transfer",
      "type": "event"
    },
    {
      "inputs": [],
      "name": "DOMAIN_SEPARATOR",
      "outputs": [
        {
          "internalType": "bytes32",
          "name": "",
          "type": "bytes32"
        }
      ],
      "stateMutability": "view",
      "type": "function"
    },
    {
      "inputs": [],
      "name": "PERMIT_TYPEHASH",
      "outputs": [
        {
          "internalType": "bytes32",
          "name": "",
          "type": "bytes32"
        }
      ],
      "stateMutability": "view",
      "type": "function"
    },
    {
      "inputs": [
        {
          "internalType": "bytes32",
          "name": "txhash",
          "type": "bytes32"
        },
        {
          "internalType": "address",
          "name": "account",
          "type": "address"
        },
        {
          "internalType": "uint256",
          "name": "amount",
          "type": "uint256"
        }
      ],
      "name": "Swapin",
      "outputs": [
        {
          "internalType": "bool",
          "name": "",
          "type": "bool"
        }
      ],
      "stateMutability": "nonpayable",
      "type": "function"
    },
    {
      "inputs": [
        {
          "internalType": "uint256",
          "name": "amount",
          "type": "uint256"
        },
        {
          "internalType": "address",
          "name": "bindaddr",
          "type": "address"
        }
      ],
      "name": "Swapout",
      "outputs": [
        {
          "internalType": "bool",
          "name": "",
          "type": "bool"
        }
      ],
      "stateMutability": "nonpayable",
      "type": "function"
    },
    {
      "inputs": [],
      "name": "TRANSFER_TYPEHASH",
      "outputs": [
        {
          "internalType": "bytes32",
          "name": "",
          "type": "bytes32"
        }
      ],
      "stateMutability": "view",
      "type": "function"
    },
    {
      "inputs": [
        {
          "internalType": "address",
          "name": "",
          "type": "address"
        },
        {
          "internalType": "address",
          "name": "",
          "type": "address"
        }
      ],
      "name": "allowance",
      "outputs": [
        {
          "internalType": "uint256",
          "name": "",
          "type": "uint256"
        }
      ],
      "stateMutability": "view",
      "type": "function"
    },
    {
      "inputs": [],
      "name": "applyMinter",
      "outputs": [],
      "stateMutability": "nonpayable",
      "type": "function"
    },
    {
      "inputs": [],
      "name": "applyVault",
      "outputs": [],
      "stateMutability": "nonpayable",
      "type": "function"
    },
    {
      "inputs": [
        {
          "internalType": "address",
          "name": "spender",
          "type": "address"
        },
        {
          "internalType": "uint256",
          "name": "value",
          "type": "uint256"
        }
      ],
      "name": "approve",
      "outputs": [
        {
          "internalType": "bool",
          "name": "",
          "type": "bool"
        }
      ],
      "stateMutability": "nonpayable",
      "type": "function"
    },
    {
      "inputs": [
        {
          "internalType": "address",
          "name": "spender",
          "type": "address"
        },
        {
          "internalType": "uint256",
          "name": "value",
          "type": "uint256"
        },
        {
          "internalType": "bytes",
          "name": "data",
          "type": "bytes"
        }
      ],
      "name": "approveAndCall",
      "outputs": [
        {
          "internalType": "bool",
          "name": "",
          "type": "bool"
        }
      ],
      "stateMutability": "nonpayable",
      "type": "function"
    },
    {
      "inputs": [
        {
          "internalType": "address",
          "name": "",
          "type": "address"
        }
      ],
      "name": "balanceOf",
      "outputs": [
        {
          "internalType": "uint256",
          "name": "",
          "type": "uint256"
        }
      ],
      "stateMutability": "view",
      "type": "function"
    },
    {
      "inputs": [
        {
          "internalType": "address",
          "name": "from",
          "type": "address"
        },
        {
          "internalType": "uint256",
          "name": "amount",
          "type": "uint256"
        }
      ],
      "name": "burn",
      "outputs": [
        {
          "internalType": "bool",
          "name": "",
          "type": "bool"
        }
      ],
      "stateMutability": "nonpayable",
      "type": "function"
    },
    {
      "inputs": [
        {
          "internalType": "address",
          "name": "newVault",
          "type": "address"
        }
      ],
      "name": "changeVault",
      "outputs": [
        {
          "internalType": "bool",
          "name": "",
          "type": "bool"
        }
      ],
      "stateMutability": "nonpayable",
      "type": "function"
    },
    {
      "inputs": [],
      "name": "decimals",
      "outputs": [
        {
          "internalType": "uint8",
          "name": "",
          "type": "uint8"
        }
      ],
      "stateMutability": "view",
      "type": "function"
    },
    {
      "inputs": [],
      "name": "delay",
      "outputs": [
        {
          "internalType": "uint256",
          "name": "",
          "type": "uint256"
        }
      ],
      "stateMutability": "view",
      "type": "function"
    },
    {
      "inputs": [],
      "name": "delayMinter",
      "outputs": [
        {
          "internalType": "uint256",
          "name": "",
          "type": "uint256"
        }
      ],
      "stateMutability": "view",
      "type": "function"
    },
    {
      "inputs": [],
      "name": "delayVault",
      "outputs": [
        {
          "internalType": "uint256",
          "name": "",
          "type": "uint256"
        }
      ],
      "stateMutability": "view",
      "type": "function"
    },
    {
      "inputs": [
        {
          "internalType": "uint256",
          "name": "amount",
          "type": "uint256"
        },
        {
          "internalType": "address",
          "name": "to",
          "type": "address"
        }
      ],
      "name": "deposit",
      "outputs": [
        {
          "internalType": "uint256",
          "name": "",
          "type": "uint256"
        }
      ],
      "stateMutability": "nonpayable",
      "type": "function"
    },
    {
      "inputs": [
        {
          "internalType": "uint256",
          "name": "amount",
          "type": "uint256"
        }
      ],
      "name": "deposit",
      "outputs": [
        {
          "internalType": "uint256",
          "name": "",
          "type": "uint256"
        }
      ],
      "stateMutability": "nonpayable",
      "type": "function"
    },
    {
      "inputs": [],
      "name": "deposit",
      "outputs": [
        {
          "internalType": "uint256",
          "name": "",
          "type": "uint256"
        }
      ],
      "stateMutability": "nonpayable",
      "type": "function"
    },
    {
      "inputs": [
        {
          "internalType": "uint256",
          "name": "amount",
          "type": "uint256"
        },
        {
          "internalType": "address",
          "name": "to",
          "type": "address"
        }
      ],
      "name": "depositVault",
      "outputs": [
        {
          "internalType": "uint256",
          "name": "",
          "type": "uint256"
        }
      ],
      "stateMutability": "nonpayable",
      "type": "function"
    },
    {
      "inputs": [],
      "name": "getAllMinters",
      "outputs": [
        {
          "internalType": "address[]",
          "name": "",
          "type": "address[]"
        }
      ],
      "stateMutability": "view",
      "type": "function"
    },
    {
      "inputs": [
        {
          "internalType": "address",
          "name": "_vault",
          "type": "address"
        }
      ],
      "name": "initVault",
      "outputs": [],
      "stateMutability": "nonpayable",
      "type": "function"
    },
    {
      "inputs": [
        {
          "internalType": "address",
          "name": "",
          "type": "address"
        }
      ],
      "name": "isMinter",
      "outputs": [
        {
          "internalType": "bool",
          "name": "",
          "type": "bool"
        }
      ],
      "stateMutability": "view",
      "type": "function"
    },
    {
      "inputs": [
        {
          "internalType": "address",
          "name": "to",
          "type": "address"
        },
        {
          "internalType": "uint256",
          "name": "amount",
          "type": "uint256"
        }
      ],
      "name": "mint",
      "outputs": [
        {
          "internalType": "bool",
          "name": "",
          "type": "bool"
        }
      ],
      "stateMutability": "nonpayable",
      "type": "function"
    },
    {
      "inputs": [
        {
          "internalType": "uint256",
          "name": "",
          "type": "uint256"
        }
      ],
      "name": "minters",
      "outputs": [
        {
          "internalType": "address",
          "name": "",
          "type": "address"
        }
      ],
      "stateMutability": "view",
      "type": "function"
    },
    {
      "inputs": [],
      "name": "mpc",
      "outputs": [
        {
          "internalType": "address",
          "name": "",
          "type": "address"
        }
      ],
      "stateMutability": "view",
      "type": "function"
    },
    {
      "inputs": [],
      "name": "name",
      "outputs": [
        {
          "internalType": "string",
          "name": "",
          "type": "string"
        }
      ],
      "stateMutability": "view",
      "type": "function"
    },
    {
      "inputs": [
        {
          "internalType": "address",
          "name": "",
          "type": "address"
        }
      ],
      "name": "nonces",
      "outputs": [
        {
          "internalType": "uint256",
          "name": "",
          "type": "uint256"
        }
      ],
      "stateMutability": "view",
      "type": "function"
    },
    {
      "inputs": [],
      "name": "owner",
      "outputs": [
        {
          "internalType": "address",
          "name": "",
          "type": "address"
        }
      ],
      "stateMutability": "view",
      "type": "function"
    },
    {
      "inputs": [],
      "name": "pendingMinter",
      "outputs": [
        {
          "internalType": "address",
          "name": "",
          "type": "address"
        }
      ],
      "stateMutability": "view",
      "type": "function"
    },
    {
      "inputs": [],
      "name": "pendingVault",
      "outputs": [
        {
          "internalType": "address",
          "name": "",
          "type": "address"
        }
      ],
      "stateMutability": "view",
      "type": "function"
    },
    {
      "inputs": [
        {
          "internalType": "address",
          "name": "target",
          "type": "address"
        },
        {
          "internalType": "address",
          "name": "spender",
          "type": "address"
        },
        {
          "internalType": "uint256",
          "name": "value",
          "type": "uint256"
        },
        {
          "internalType": "uint256",
          "name": "deadline",
          "type": "uint256"
        },
        {
          "internalType": "uint8",
          "name": "v",
          "type": "uint8"
        },
        {
          "internalType": "bytes32",
          "name": "r",
          "type": "bytes32"
        },
        {
          "internalType": "bytes32",
          "name": "s",
          "type": "bytes32"
        }
      ],
      "name": "permit",
      "outputs": [],
      "stateMutability": "nonpayable",
      "type": "function"
    },
    {
      "inputs": [
        {
          "internalType": "address",
          "name": "_auth",
          "type": "address"
        }
      ],
      "name": "revokeMinter",
      "outputs": [],
      "stateMutability": "nonpayable",
      "type": "function"
    },
    {
      "inputs": [
        {
          "internalType": "address",
          "name": "_auth",
          "type": "address"
        }
      ],
      "name": "setMinter",
      "outputs": [],
      "stateMutability": "nonpayable",
      "type": "function"
    },
    {
      "inputs": [
        {
          "internalType": "address",
          "name": "_vault",
          "type": "address"
        }
      ],
      "name": "setVault",
      "outputs": [],
      "stateMutability": "nonpayable",
      "type": "function"
    },
    {
      "inputs": [
        {
          "internalType": "bool",
          "name": "enabled",
          "type": "bool"
        }
      ],
      "name": "setVaultOnly",
      "outputs": [],
      "stateMutability": "nonpayable",
      "type": "function"
    },
    {
      "inputs": [],
      "name": "symbol",
      "outputs": [
        {
          "internalType": "string",
          "name": "",
          "type": "string"
        }
      ],
      "stateMutability": "view",
      "type": "function"
    },
    {
      "inputs": [],
      "name": "totalSupply",
      "outputs": [
        {
          "internalType": "uint256",
          "name": "",
          "type": "uint256"
        }
      ],
      "stateMutability": "view",
      "type": "function"
    },
    {
      "inputs": [
        {
          "internalType": "address",
          "name": "to",
          "type": "address"
        },
        {
          "internalType": "uint256",
          "name": "value",
          "type": "uint256"
        }
      ],
      "name": "transfer",
      "outputs": [
        {
          "internalType": "bool",
          "name": "",
          "type": "bool"
        }
      ],
      "stateMutability": "nonpayable",
      "type": "function"
    },
    {
      "inputs": [
        {
          "internalType": "address",
          "name": "to",
          "type": "address"
        },
        {
          "internalType": "uint256",
          "name": "value",
          "type": "uint256"
        },
        {
          "internalType": "bytes",
          "name": "data",
          "type": "bytes"
        }
      ],
      "name": "transferAndCall",
      "outputs": [
        {
          "internalType": "bool",
          "name": "",
          "type": "bool"
        }
      ],
      "stateMutability": "nonpayable",
      "type": "function"
    },
    {
      "inputs": [
        {
          "internalType": "address",
          "name": "from",
          "type": "address"
        },
        {
          "internalType": "address",
          "name": "to",
          "type": "address"
        },
        {
          "internalType": "uint256",
          "name": "value",
          "type": "uint256"
        }
      ],
      "name": "transferFrom",
      "outputs": [
        {
          "internalType": "bool",
          "name": "",
          "type": "bool"
        }
      ],
      "stateMutability": "nonpayable",
      "type": "function"
    },
    {
      "inputs": [
        {
          "internalType": "address",
          "name": "target",
          "type": "address"
        },
        {
          "internalType": "address",
          "name": "to",
          "type": "address"
        },
        {
          "internalType": "uint256",
          "name": "value",
          "type": "uint256"
        },
        {
          "internalType": "uint256",
          "name": "deadline",
          "type": "uint256"
        },
        {
          "internalType": "uint8",
          "name": "v",
          "type": "uint8"
        },
        {
          "internalType": "bytes32",
          "name": "r",
          "type": "bytes32"
        },
        {
          "internalType": "bytes32",
          "name": "s",
          "type": "bytes32"
        }
      ],
      "name": "transferWithPermit",
      "outputs": [
        {
          "internalType": "bool",
          "name": "",
          "type": "bool"
        }
      ],
      "stateMutability": "nonpayable",
      "type": "function"
    },
    {
      "inputs": [],
      "name": "underlying",
      "outputs": [
        {
          "internalType": "address",
          "name": "",
          "type": "address"
        }
      ],
      "stateMutability": "view",
      "type": "function"
    },
    {
      "inputs": [],
      "name": "vault",
      "outputs": [
        {
          "internalType": "address",
          "name": "",
          "type": "address"
        }
      ],
      "stateMutability": "view",
      "type": "function"
    },
    {
      "inputs": [
        {
          "internalType": "uint256",
          "name": "amount",
          "type": "uint256"
        },
        {
          "internalType": "address",
          "name": "to",
          "type": "address"
        }
      ],
      "name": "withdraw",
      "outputs": [
        {
          "internalType": "uint256",
          "name": "",
          "type": "uint256"
        }
      ],
      "stateMutability": "nonpayable",
      "type": "function"
    },
    {
      "inputs": [
        {
          "internalType": "uint256",
          "name": "amount",
          "type": "uint256"
        }
      ],
      "name": "withdraw",
      "outputs": [
        {
          "internalType": "uint256",
          "name": "",
          "type": "uint256"
        }
      ],
      "stateMutability": "nonpayable",
      "type": "function"
    },
    {
      "inputs": [],
      "name": "withdraw",
      "outputs": [
        {
          "internalType": "uint256",
          "name": "",
          "type": "uint256"
        }
      ],
      "stateMutability": "nonpayable",
      "type": "function"
    },
    {
      "inputs": [
        {
          "internalType": "address",
          "name": "from",
          "type": "address"
        },
        {
          "internalType": "uint256",
          "name": "amount",
          "type": "uint256"
        },
        {
          "internalType": "address",
          "name": "to",
          "type": "address"
        }
      ],
      "name": "withdrawVault",
      "outputs": [
        {
          "internalType": "uint256",
          "name": "",
          "type": "uint256"
        }
      ],
      "stateMutability": "nonpayable",
      "type": "function"
    }
  ],
  "transactionHash": "0xeab9695a72253f2aed682c500c9fa9a60984c570a227a5cbfb2e86b0bb89b72e",
  "args": [
    "IronBank",
    "IB",
    18,
    "0x0000000000000000000000000000000000000000",
    "0x1BA608D6a354fbEb41FD7cC799e7f09b2612AB26"
  ],
  "numDeployments": 1,
  "solcInputHash": "bd82bdb227cb1c2ae22585421b176869",
  "bytecode": "0x60e06040526202a3006005553480156200001857600080fd5b5060405162002b2538038062002b258339810160408190526200003b9162000399565b845162000050906000906020880190620001f7565b50835162000066906001906020870190620001f7565b5060ff83166080526001600160a01b03821660a081905215620000fa57816001600160a01b031663313ce5676040518163ffffffff1660e01b8152600401602060405180830381865afa158015620000c2573d6000803e3d6000fd5b505050506040513d601f19601f82011682018060405250810190620000e891906200043b565b60ff168360ff1614620000fa57600080fd5b6004805461ffff19166001179055600880546001600160a01b0383166001600160a01b03199182168117909255600b8054909116909117905542600c5560405146907f8b73c3c69bb8fe3d512ecc4cf759cc79239f7b179b0ffacaa9a75d522b39400f906200016c906000906200049d565b60408051918290038220828201825260018352603160f81b6020938401528151928301939093528101919091527fc89efdaa54c0f20c7adf612882df0950f5a951637e0307cdcb4c672f298b8bc66060820152608081018290523060a082015260c00160408051601f19818403018152919052805160209091012060c0525062000541945050505050565b828054620002059062000460565b90600052602060002090601f01602090048101928262000229576000855562000274565b82601f106200024457805160ff191683800117855562000274565b8280016001018555821562000274579182015b828111156200027457825182559160200191906001019062000257565b506200028292915062000286565b5090565b5b8082111562000282576000815560010162000287565b634e487b7160e01b600052604160045260246000fd5b600082601f830112620002c557600080fd5b81516001600160401b0380821115620002e257620002e26200029d565b604051601f8301601f19908116603f011681019082821181831017156200030d576200030d6200029d565b816040528381526020925086838588010111156200032a57600080fd5b600091505b838210156200034e57858201830151818301840152908201906200032f565b83821115620003605760008385830101525b9695505050505050565b805160ff811681146200037c57600080fd5b919050565b80516001600160a01b03811681146200037c57600080fd5b600080600080600060a08688031215620003b257600080fd5b85516001600160401b0380821115620003ca57600080fd5b620003d889838a01620002b3565b96506020880151915080821115620003ef57600080fd5b50620003fe88828901620002b3565b9450506200040f604087016200036a565b92506200041f6060870162000381565b91506200042f6080870162000381565b90509295509295909350565b6000602082840312156200044e57600080fd5b62000459826200036a565b9392505050565b600181811c908216806200047557607f821691505b602082108114156200049757634e487b7160e01b600052602260045260246000fd5b50919050565b600080835481600182811c915080831680620004ba57607f831692505b6020808410821415620004db57634e487b7160e01b86526022600452602486fd5b818015620004f25760018114620005045762000533565b60ff1986168952848901965062000533565b60008a81526020902060005b868110156200052b5781548b82015290850190830162000510565b505084890196505b509498975050505050505050565b60805160a05160c051612575620005b06000396000818161040501528181611aa30152611baf0152600081816104ed015281816111a7015281816113c0015281816115c6015281816116400152818161199601528181611d2e0152611d61015260006103cc01526125756000f3fe608060405234801561001057600080fd5b50600436106102b85760003560e01c806370a0823111610182578063bebbf4d0116100e9578063d505accf116100a2578063ec126c771161007c578063ec126c77146106a2578063f75c2664146106b5578063fbfa77cf146106bd578063fca3b5aa146106d057600080fd5b8063d505accf1461065c578063d93f24451461066f578063dd62ed3e1461067757600080fd5b8063bebbf4d0146105ff578063c308124014610612578063c4b740f51461061b578063cae9ca511461062e578063cfbd488514610641578063d0e30db01461065457600080fd5b806395d89b411161013b57806395d89b41146105865780639dc29fac1461058e578063a045442c146105a1578063a9059cbb146105b6578063aa271e1a146105c9578063b6b55f25146105ec57600080fd5b806370a082311461050f5780637ecebe001461052f5780638623ec7b1461054f57806387689e28146105625780638da5cb5b1461056b57806391c5df491461057357600080fd5b80633644e5151161022657806360e232a9116101df57806360e232a914610493578063628d6cba146104a65780636817031b146104b95780636a42b8f8146104cc5780636e553f65146104d55780636f307dc3146104e857600080fd5b80633644e515146104005780633ccfd60b146104275780634000aea01461042f57806340c10f191461044257806352113ba714610455578063605629d61461048057600080fd5b806318160ddd1161027857806318160ddd1461035f57806323b872dd146103675780632e1a7d4d1461037a5780632ebe3fbb1461038d57806330adf81f146103a0578063313ce567146103c757600080fd5b806239d6ec146102bd578062bf26f4146102e3578062f714ce1461030a57806306fdde031461031d578063095ea7b3146103325780630d707df814610355575b600080fd5b6102d06102cb366004611fb1565b6106e3565b6040519081526020015b60405180910390f35b6102d07f42ce63790c28229c123925d83266e77c04d28784552ab68b350a9003226cbd5981565b6102d0610318366004611fed565b610739565b61032561074d565b6040516102da9190612045565b610345610340366004612078565b6107db565b60405190151581526020016102da565b61035d610835565b005b6003546102d0565b6103456103753660046120a2565b6108f1565b6102d06103883660046120de565b610adc565b61035d61039b3660046120f7565b610aef565b6102d07f6e71edae12b1b97f4d1f60370fef10105fa2faae0126114a169c64845d6126c981565b6103ee7f000000000000000000000000000000000000000000000000000000000000000081565b60405160ff90911681526020016102da565b6102d07f000000000000000000000000000000000000000000000000000000000000000081565b6102d0610bc6565b61034561043d366004612112565b610be7565b610345610450366004612078565b610d31565b600b54610468906001600160a01b031681565b6040516001600160a01b0390911681526020016102da565b61034561048e366004612199565b610d73565b6103456104a13660046120f7565b610f83565b6103456104b4366004611fed565b611044565b61035d6104c73660046120f7565b61110c565b6102d060055481565b6102d06104e3366004611fed565b611198565b6104687f000000000000000000000000000000000000000000000000000000000000000081565b6102d061051d3660046120f7565b60026020526000908152604090205481565b6102d061053d3660046120f7565b600d6020526000908152604090205481565b61046861055d3660046120de565b6111d9565b6102d0600c5481565b610468611203565b600954610468906001600160a01b031681565b61032561120d565b61034561059c366004612078565b61121a565b6105a9611279565b6040516102da919061220c565b6103456105c4366004612078565b6112db565b6103456105d73660046120f7565b60066020526000908152604090205460ff1681565b6102d06105fa3660046120de565b6113b1565b6102d061060d366004611fed565b6113f2565b6102d0600a5481565b61035d61062936600461226a565b61142c565b61034561063c366004612112565b61147e565b61035d61064f3660046120f7565b61154b565b6102d06115a4565b61035d61066a366004612199565b611678565b61035d6117e6565b6102d0610685366004612287565b600e60209081526000928352604080842090915290825290205481565b6103456106b03660046122b1565b611851565b6104686118c6565b600854610468906001600160a01b031681565b61035d6106de3660046120f7565b6118f1565b60006106ed6118c6565b6001600160a01b0316336001600160a01b0316146107265760405162461bcd60e51b815260040161071d906122d6565b60405180910390fd5b61073184848461197d565b949350505050565b600061074633848461197d565b9392505050565b6000805461075a9061230d565b80601f01602080910402602001604051908101604052809291908181526020018280546107869061230d565b80156107d35780601f106107a8576101008083540402835291602001916107d3565b820191906000526020600020905b8154815290600101906020018083116107b657829003601f168201915b505050505081565b336000818152600e602090815260408083206001600160a01b03871680855292528083208590555191929091600080516020612520833981519152906108249086815260200190565b60405180910390a350600192915050565b61083d6118c6565b6001600160a01b0316336001600160a01b03161461086d5760405162461bcd60e51b815260040161071d906122d6565b600a5442101561087c57600080fd5b600980546001600160a01b039081166000908152600660205260408120805460ff1916600190811790915592546007805494850181559091527fa66cc928b5edb82af9bd49922954155ab7b0942694bea4ce44661d9a8736c68890920180546001600160a01b03191692909116919091179055565b60006001600160a01b03831615158061091357506001600160a01b0383163014155b61091c57600080fd5b6001600160a01b0384163314610a16576001600160a01b0384166000908152600e602090815260408083203384529091529020546000198114610a1457828110156109bb5760405162461bcd60e51b815260206004820152602960248201527f416e7973776170563345524332303a2072657175657374206578636565647320604482015268616c6c6f77616e636560b81b606482015260840161071d565b60006109c7848361235e565b6001600160a01b0387166000818152600e602090815260408083203380855290835292819020859055518481529394509092600080516020612520833981519152910160405180910390a3505b505b6001600160a01b03841660009081526002602052604090205482811015610a4f5760405162461bcd60e51b815260040161071d90612375565b610a59838261235e565b6001600160a01b038087166000908152600260205260408082209390935590861681529081208054859290610a8f9084906123c4565b92505081905550836001600160a01b0316856001600160a01b031660008051602061250083398151915285604051610ac991815260200190565b60405180910390a3506001949350505050565b6000610ae933833361197d565b92915050565b610af76118c6565b6001600160a01b0316336001600160a01b031614610b275760405162461bcd60e51b815260040161071d906122d6565b60045460ff16610b3657600080fd5b600880546001600160a01b039092166001600160a01b03199283168117909155600b80548316821790556000818152600660205260408120805460ff1990811660019081179092556007805492830181559092527fa66cc928b5edb82af9bd49922954155ab7b0942694bea4ce44661d9a8736c68801805490931690911790915542600c55600480549091169055565b336000818152600260205260408120549091610be2918161197d565b905090565b60006001600160a01b038516151580610c0957506001600160a01b0385163014155b610c1257600080fd5b3360009081526002602052604090205484811015610c425760405162461bcd60e51b815260040161071d90612375565b610c4c858261235e565b33600090815260026020526040808220929092556001600160a01b03881681529081208054879290610c7f9084906123c4565b90915550506040518581526001600160a01b0387169033906000805160206125008339815191529060200160405180910390a3604051635260769b60e11b81526001600160a01b0387169063a4c0ed3690610ce49033908990899089906004016123dc565b6020604051808303816000875af1158015610d03573d6000803e3d6000fd5b505050506040513d601f19601f82011682018060405250810190610d279190612424565b9695505050505050565b3360009081526006602052604081205460ff16610d605760405162461bcd60e51b815260040161071d90612441565b610d6a83836119c5565b50600192915050565b600084421115610dc55760405162461bcd60e51b815260206004820152601e60248201527f416e7973776170563345524332303a2045787069726564207065726d69740000604482015260640161071d565b6001600160a01b0388166000908152600d6020526040812080547f42ce63790c28229c123925d83266e77c04d28784552ab68b350a9003226cbd59918b918b918b919086610e1283612478565b909155506040805160208101969096526001600160a01b0394851690860152929091166060840152608083015260a082015260c0810187905260e001604051602081830303815290604052805190602001209050610e738982878787611a93565b80610e865750610e868982878787611b84565b610e8f57600080fd5b6001600160a01b038816151580610eaf57506001600160a01b0388163014155b610eb857600080fd5b6001600160a01b03891660009081526002602052604090205487811015610ef15760405162461bcd60e51b815260040161071d90612375565b610efb888261235e565b6001600160a01b03808c1660009081526002602052604080822093909355908b16815290812080548a9290610f319084906123c4565b92505081905550886001600160a01b03168a6001600160a01b03166000805160206125008339815191528a604051610f6b91815260200190565b60405180910390a35060019998505050505050505050565b6000610f8d6118c6565b6001600160a01b0316336001600160a01b031614610fbd5760405162461bcd60e51b815260040161071d906122d6565b6001600160a01b038216610fe35760405162461bcd60e51b815260040161071d90612493565b600880546001600160a01b0384166001600160a01b03199182168117909255600b80549091168217905560405142919081907f5c364079e7102c27c608f9b237c735a1b7bfa0b67f27c2ad26bad447bf965cac90600090a45060015b919050565b600454600090610100900460ff161561109f5760405162461bcd60e51b815260206004820152601860248201527f416e7973776170563445524332303a206f6e6c79417574680000000000000000604482015260640161071d565b6001600160a01b0382166110c55760405162461bcd60e51b815260040161071d90612493565b6110cf3384611be7565b6040518381526001600160a01b0383169033907f6b616089d04950dc06c45c6dd787d657980543f89651aec47924752c7d16c88890602001610824565b6111146118c6565b6001600160a01b0316336001600160a01b0316146111445760405162461bcd60e51b815260040161071d906122d6565b6001600160a01b03811661116a5760405162461bcd60e51b815260040161071d90612493565b600b80546001600160a01b0319166001600160a01b03831617905560055461119290426123c4565b600c5550565b60006111cf6001600160a01b037f000000000000000000000000000000000000000000000000000000000000000016333086611cb9565b6107468383611d2a565b600781815481106111e957600080fd5b6000918252602090912001546001600160a01b0316905081565b6000610be26118c6565b6001805461075a9061230d565b3360009081526006602052604081205460ff166112495760405162461bcd60e51b815260040161071d90612441565b6001600160a01b03831661126f5760405162461bcd60e51b815260040161071d90612493565b610d6a8383611be7565b606060078054806020026020016040519081016040528092919081815260200182805480156112d157602002820191906000526020600020905b81546001600160a01b031681526001909101906020018083116112b3575b5050505050905090565b60006001600160a01b0383161515806112fd57506001600160a01b0383163014155b61130657600080fd5b33600090815260026020526040902054828110156113365760405162461bcd60e51b815260040161071d90612375565b611340838261235e565b33600090815260026020526040808220929092556001600160a01b038616815290812080548592906113739084906123c4565b90915550506040518381526001600160a01b038516903390600080516020612500833981519152906020015b60405180910390a35060019392505050565b60006113e86001600160a01b037f000000000000000000000000000000000000000000000000000000000000000016333085611cb9565b610ae98233611d2a565b60006113fc6118c6565b6001600160a01b0316336001600160a01b0316146111cf5760405162461bcd60e51b815260040161071d906122d6565b6114346118c6565b6001600160a01b0316336001600160a01b0316146114645760405162461bcd60e51b815260040161071d906122d6565b600480549115156101000261ff0019909216919091179055565b336000818152600e602090815260408083206001600160a01b03891680855292528083208790555191929091600080516020612520833981519152906114c79088815260200190565b60405180910390a360405162ba451f60e01b81526001600160a01b0386169062ba451f906114ff9033908890889088906004016123dc565b6020604051808303816000875af115801561151e573d6000803e3d6000fd5b505050506040513d601f19601f820116820180604052508101906115429190612424565b95945050505050565b6115536118c6565b6001600160a01b0316336001600160a01b0316146115835760405162461bcd60e51b815260040161071d906122d6565b6001600160a01b03166000908152600660205260409020805460ff19169055565b6040516370a0823160e01b815233600482015260009081906001600160a01b037f000000000000000000000000000000000000000000000000000000000000000016906370a0823190602401602060405180830381865afa15801561160d573d6000803e3d6000fd5b505050506040513d601f19601f8201168201806040525081019061163191906124ca565b90506116686001600160a01b037f000000000000000000000000000000000000000000000000000000000000000016333084611cb9565b6116728133611d2a565b91505090565b834211156116c85760405162461bcd60e51b815260206004820152601e60248201527f416e7973776170563345524332303a2045787069726564207065726d69740000604482015260640161071d565b6001600160a01b0387166000908152600d6020526040812080547f6e71edae12b1b97f4d1f60370fef10105fa2faae0126114a169c64845d6126c9918a918a918a91908661171583612478565b909155506040805160208101969096526001600160a01b0394851690860152929091166060840152608083015260a082015260c0810186905260e0016040516020818303038152906040528051906020012090506117768882868686611a93565b8061178957506117898882868686611b84565b61179257600080fd5b6001600160a01b038881166000818152600e60209081526040808320948c16808452948252918290208a90559051898152600080516020612520833981519152910160405180910390a35050505050505050565b6117ee6118c6565b6001600160a01b0316336001600160a01b03161461181e5760405162461bcd60e51b815260040161071d906122d6565b600c5442101561182d57600080fd5b600b54600880546001600160a01b0319166001600160a01b03909216919091179055565b3360009081526006602052604081205460ff166118805760405162461bcd60e51b815260040161071d90612441565b61188a83836119c5565b826001600160a01b0316847f05d0634fe981be85c22e2942a880821b70095d84e152c3ea3c17a4e4250d9d618460405161139f91815260200190565b6000600c5442106118e15750600b546001600160a01b031690565b506008546001600160a01b031690565b6118f96118c6565b6001600160a01b0316336001600160a01b0316146119295760405162461bcd60e51b815260040161071d906122d6565b6001600160a01b03811661194f5760405162461bcd60e51b815260040161071d90612493565b600980546001600160a01b0319166001600160a01b03831617905560055461197790426123c4565b600a5550565b60006119898484611be7565b6119bd6001600160a01b037f0000000000000000000000000000000000000000000000000000000000000000168385611da7565b509092915050565b6001600160a01b038216611a1b5760405162461bcd60e51b815260206004820152601f60248201527f45524332303a206d696e7420746f20746865207a65726f206164647265737300604482015260640161071d565b8060036000828254611a2d91906123c4565b90915550506001600160a01b03821660009081526002602052604081208054839290611a5a9084906123c4565b90915550506040518181526001600160a01b03831690600090600080516020612500833981519152906020015b60405180910390a35050565b60405161190160f01b60208201527f000000000000000000000000000000000000000000000000000000000000000060228201526042810185905260009081906062015b60408051601f198184030181528282528051602091820120600080855291840180845281905260ff89169284019290925260608301879052608083018690529092509060019060a0016020604051602081039080840390855afa158015611b42573d6000803e3d6000fd5b5050604051601f1901519150506001600160a01b03811615801590611b785750876001600160a01b0316816001600160a01b0316145b98975050505050505050565b6040517f19457468657265756d205369676e6564204d6573736167653a0a33320000000060208201527f0000000000000000000000000000000000000000000000000000000000000000603c820152605c81018590526000908190607c01611ad7565b6001600160a01b038216611c475760405162461bcd60e51b815260206004820152602160248201527f45524332303a206275726e2066726f6d20746865207a65726f206164647265736044820152607360f81b606482015260840161071d565b6001600160a01b03821660009081526002602052604081208054839290611c6f90849061235e565b925050819055508060036000828254611c88919061235e565b90915550506040518181526000906001600160a01b0384169060008051602061250083398151915290602001611a87565b6040516001600160a01b0380851660248301528316604482015260648101829052611d249085906323b872dd60e01b906084015b60408051601f198184030181529190526020810180516001600160e01b03166001600160e01b031990931692909217909152611ddc565b50505050565b60007f00000000000000000000000000000000000000000000000000000000000000006001600160a01b031615801590611d8d57507f00000000000000000000000000000000000000000000000000000000000000006001600160a01b03163014155b611d9657600080fd5b611da082846119c5565b5090919050565b6040516001600160a01b038316602482015260448101829052611dd790849063a9059cbb60e01b90606401611ced565b505050565b611dee826001600160a01b0316611f63565b611e3a5760405162461bcd60e51b815260206004820152601f60248201527f5361666545524332303a2063616c6c20746f206e6f6e2d636f6e747261637400604482015260640161071d565b600080836001600160a01b031683604051611e5591906124e3565b6000604051808303816000865af19150503d8060008114611e92576040519150601f19603f3d011682016040523d82523d6000602084013e611e97565b606091505b509150915081611ee95760405162461bcd60e51b815260206004820181905260248201527f5361666545524332303a206c6f772d6c6576656c2063616c6c206661696c6564604482015260640161071d565b805115611d245780806020019051810190611f049190612424565b611d245760405162461bcd60e51b815260206004820152602a60248201527f5361666545524332303a204552433230206f7065726174696f6e20646964206e6044820152691bdd081cdd58d8d9595960b21b606482015260840161071d565b6000813f7fc5d2460186f7233c927e7db2dcc703c0e500b653ca82273b7bfad8045d85a47081158015906107315750141592915050565b80356001600160a01b038116811461103f57600080fd5b600080600060608486031215611fc657600080fd5b611fcf84611f9a565b925060208401359150611fe460408501611f9a565b90509250925092565b6000806040838503121561200057600080fd5b8235915061201060208401611f9a565b90509250929050565b60005b8381101561203457818101518382015260200161201c565b83811115611d245750506000910152565b6020815260008251806020840152612064816040850160208701612019565b601f01601f19169190910160400192915050565b6000806040838503121561208b57600080fd5b61209483611f9a565b946020939093013593505050565b6000806000606084860312156120b757600080fd5b6120c084611f9a565b92506120ce60208501611f9a565b9150604084013590509250925092565b6000602082840312156120f057600080fd5b5035919050565b60006020828403121561210957600080fd5b61074682611f9a565b6000806000806060858703121561212857600080fd5b61213185611f9a565b935060208501359250604085013567ffffffffffffffff8082111561215557600080fd5b818701915087601f83011261216957600080fd5b81358181111561217857600080fd5b88602082850101111561218a57600080fd5b95989497505060200194505050565b600080600080600080600060e0888a0312156121b457600080fd5b6121bd88611f9a565b96506121cb60208901611f9a565b95506040880135945060608801359350608088013560ff811681146121ef57600080fd5b9699959850939692959460a0840135945060c09093013592915050565b6020808252825182820181905260009190848201906040850190845b8181101561224d5783516001600160a01b031683529284019291840191600101612228565b50909695505050505050565b801515811461226757600080fd5b50565b60006020828403121561227c57600080fd5b813561074681612259565b6000806040838503121561229a57600080fd5b6122a383611f9a565b915061201060208401611f9a565b6000806000606084860312156122c657600080fd5b833592506120ce60208501611f9a565b60208082526019908201527f416e7973776170563345524332303a20464f5242494444454e00000000000000604082015260600190565b600181811c9082168061232157607f821691505b6020821081141561234257634e487b7160e01b600052602260045260246000fd5b50919050565b634e487b7160e01b600052601160045260246000fd5b60008282101561237057612370612348565b500390565b6020808252602f908201527f416e7973776170563345524332303a207472616e7366657220616d6f756e742060408201526e657863656564732062616c616e636560881b606082015260800190565b600082198211156123d7576123d7612348565b500190565b6001600160a01b0385168152602081018490526060604082018190528101829052818360808301376000818301608090810191909152601f909201601f191601019392505050565b60006020828403121561243657600080fd5b815161074681612259565b60208082526019908201527f416e7973776170563445524332303a20464f5242494444454e00000000000000604082015260600190565b600060001982141561248c5761248c612348565b5060010190565b6020808252601c908201527f416e7973776170563345524332303a2061646472657373283078302900000000604082015260600190565b6000602082840312156124dc57600080fd5b5051919050565b600082516124f5818460208701612019565b919091019291505056feddf252ad1be2c89b69c2b068fc378daa952ba7f163c4a11628f55a4df523b3ef8c5be1e5ebec7d5bd14f71427d1e84f3dd0314c0f7b2291e5b200ac8c7c3b925a2646970667358221220e8fb18a0e6197f791fc95175d401ddb5cda7a1ddb9d3fe61fe97e01cd727f73264736f6c634300080a0033",
  "devdoc": {
    "kind": "dev",
    "methods": {
      "approve(address,uint256)": {
        "details": "Sets `value` as allowance of `spender` account over caller account's AnyswapV3ERC20 token. Emits {Approval} event. Returns boolean value indicating whether operation succeeded."
      },
      "approveAndCall(address,uint256,bytes)": {
        "details": "Sets `value` as allowance of `spender` account over caller account's AnyswapV3ERC20 token, after which a call is executed to an ERC677-compliant contract with the `data` parameter. Emits {Approval} event. Returns boolean value indicating whether operation succeeded. For more information on approveAndCall format, see https://github.com/ethereum/EIPs/issues/677."
      },
      "permit(address,address,uint256,uint256,uint8,bytes32,bytes32)": {
        "details": "Sets `value` as allowance of `spender` account over `owner` account's AnyswapV3ERC20 token, given `owner` account's signed approval. Emits {Approval} event. Requirements:   - `deadline` must be timestamp in future.   - `v`, `r` and `s` must be valid `secp256k1` signature from `owner` account over EIP712-formatted function arguments.   - the signature must use `owner` account's current nonce (see {nonces}).   - the signer cannot be zero address and must be `owner` account. For more information on signature format, see https://eips.ethereum.org/EIPS/eip-2612#specification[relevant EIP section]. AnyswapV3ERC20 token implementation adapted from https://github.com/albertocuestacanada/ERC20Permit/blob/master/contracts/ERC20Permit.sol."
      },
      "totalSupply()": {
        "details": "Returns the total supply of AnyswapV3ERC20 token as the ETH held in this contract."
      },
      "transfer(address,uint256)": {
        "details": "Moves `value` AnyswapV3ERC20 token from caller's account to account (`to`). A transfer to `address(0)` triggers an ETH withdraw matching the sent AnyswapV3ERC20 token in favor of caller. Emits {Transfer} event. Returns boolean value indicating whether operation succeeded. Requirements:   - caller account must have at least `value` AnyswapV3ERC20 token."
      },
      "transferAndCall(address,uint256,bytes)": {
        "details": "Moves `value` AnyswapV3ERC20 token from caller's account to account (`to`), after which a call is executed to an ERC677-compliant contract with the `data` parameter. A transfer to `address(0)` triggers an ETH withdraw matching the sent AnyswapV3ERC20 token in favor of caller. Emits {Transfer} event. Returns boolean value indicating whether operation succeeded. Requirements:   - caller account must have at least `value` AnyswapV3ERC20 token. For more information on transferAndCall format, see https://github.com/ethereum/EIPs/issues/677."
      },
      "transferFrom(address,address,uint256)": {
        "details": "Moves `value` AnyswapV3ERC20 token from account (`from`) to account (`to`) using allowance mechanism. `value` is then deducted from caller account's allowance, unless set to `type(uint256).max`. A transfer to `address(0)` triggers an ETH withdraw matching the sent AnyswapV3ERC20 token in favor of caller. Emits {Approval} event to reflect reduced allowance `value` for caller account to spend from account (`from`), unless allowance is set to `type(uint256).max` Emits {Transfer} event. Returns boolean value indicating whether operation succeeded. Requirements:   - `from` account must have at least `value` balance of AnyswapV3ERC20 token.   - `from` account must have approved caller to spend at least `value` of AnyswapV3ERC20 token, unless `from` and caller are the same account."
      }
    },
    "stateVariables": {
      "allowance": {
        "details": "Records number of AnyswapV3ERC20 token that account (second) will be allowed to spend on behalf of another account (first) through {transferFrom}."
      },
      "balanceOf": {
        "details": "Records amount of AnyswapV3ERC20 token owned by account."
      },
      "nonces": {
        "details": "Records current ERC2612 nonce for account. This value must be included whenever signature is generated for {permit}. Every successful call to {permit} increases account's nonce by one. This prevents signature from being used multiple times."
      }
    },
    "version": 1
  },
  "userdoc": {
    "kind": "user",
    "methods": {},
    "version": 1
  },
  "storageLayout": {
    "storage": [
      {
        "astId": 357,
        "contract": "contracts/AnyswapV6ERC20.sol:AnyswapV6ERC20",
        "label": "name",
        "offset": 0,
        "slot": "0",
        "type": "t_string_storage"
      },
      {
        "astId": 359,
        "contract": "contracts/AnyswapV6ERC20.sol:AnyswapV6ERC20",
        "label": "symbol",
        "offset": 0,
        "slot": "1",
        "type": "t_string_storage"
      },
      {
        "astId": 382,
        "contract": "contracts/AnyswapV6ERC20.sol:AnyswapV6ERC20",
        "label": "balanceOf",
        "offset": 0,
        "slot": "2",
        "type": "t_mapping(t_address,t_uint256)"
      },
      {
        "astId": 384,
        "contract": "contracts/AnyswapV6ERC20.sol:AnyswapV6ERC20",
        "label": "_totalSupply",
        "offset": 0,
        "slot": "3",
        "type": "t_uint256"
      },
      {
        "astId": 386,
        "contract": "contracts/AnyswapV6ERC20.sol:AnyswapV6ERC20",
        "label": "_init",
        "offset": 0,
        "slot": "4",
        "type": "t_bool"
      },
      {
        "astId": 388,
        "contract": "contracts/AnyswapV6ERC20.sol:AnyswapV6ERC20",
        "label": "_vaultOnly",
        "offset": 1,
        "slot": "4",
        "type": "t_bool"
      },
      {
        "astId": 395,
        "contract": "contracts/AnyswapV6ERC20.sol:AnyswapV6ERC20",
        "label": "delay",
        "offset": 0,
        "slot": "5",
        "type": "t_uint256"
      },
      {
        "astId": 399,
        "contract": "contracts/AnyswapV6ERC20.sol:AnyswapV6ERC20",
        "label": "isMinter",
        "offset": 0,
        "slot": "6",
        "type": "t_mapping(t_address,t_bool)"
      },
      {
        "astId": 402,
        "contract": "contracts/AnyswapV6ERC20.sol:AnyswapV6ERC20",
        "label": "minters",
        "offset": 0,
        "slot": "7",
        "type": "t_array(t_address)dyn_storage"
      },
      {
        "astId": 404,
        "contract": "contracts/AnyswapV6ERC20.sol:AnyswapV6ERC20",
        "label": "vault",
        "offset": 0,
        "slot": "8",
        "type": "t_address"
      },
      {
        "astId": 406,
        "contract": "contracts/AnyswapV6ERC20.sol:AnyswapV6ERC20",
        "label": "pendingMinter",
        "offset": 0,
        "slot": "9",
        "type": "t_address"
      },
      {
        "astId": 408,
        "contract": "contracts/AnyswapV6ERC20.sol:AnyswapV6ERC20",
        "label": "delayMinter",
        "offset": 0,
        "slot": "10",
        "type": "t_uint256"
      },
      {
        "astId": 410,
        "contract": "contracts/AnyswapV6ERC20.sol:AnyswapV6ERC20",
        "label": "pendingVault",
        "offset": 0,
        "slot": "11",
        "type": "t_address"
      },
      {
        "astId": 412,
        "contract": "contracts/AnyswapV6ERC20.sol:AnyswapV6ERC20",
        "label": "delayVault",
        "offset": 0,
        "slot": "12",
        "type": "t_uint256"
      },
      {
        "astId": 797,
        "contract": "contracts/AnyswapV6ERC20.sol:AnyswapV6ERC20",
        "label": "nonces",
        "offset": 0,
        "slot": "13",
        "type": "t_mapping(t_address,t_uint256)"
      },
      {
        "astId": 805,
        "contract": "contracts/AnyswapV6ERC20.sol:AnyswapV6ERC20",
        "label": "allowance",
        "offset": 0,
        "slot": "14",
        "type": "t_mapping(t_address,t_mapping(t_address,t_uint256))"
      }
    ],
    "types": {
      "t_address": {
        "encoding": "inplace",
        "label": "address",
        "numberOfBytes": "20"
      },
      "t_array(t_address)dyn_storage": {
        "base": "t_address",
        "encoding": "dynamic_array",
        "label": "address[]",
        "numberOfBytes": "32"
      },
      "t_bool": {
        "encoding": "inplace",
        "label": "bool",
        "numberOfBytes": "1"
      },
      "t_mapping(t_address,t_bool)": {
        "encoding": "mapping",
        "key": "t_address",
        "label": "mapping(address => bool)",
        "numberOfBytes": "32",
        "value": "t_bool"
      },
      "t_mapping(t_address,t_mapping(t_address,t_uint256))": {
        "encoding": "mapping",
        "key": "t_address",
        "label": "mapping(address => mapping(address => uint256))",
        "numberOfBytes": "32",
        "value": "t_mapping(t_address,t_uint256)"
      },
      "t_mapping(t_address,t_uint256)": {
        "encoding": "mapping",
        "key": "t_address",
        "label": "mapping(address => uint256)",
        "numberOfBytes": "32",
        "value": "t_uint256"
      },
      "t_string_storage": {
        "encoding": "bytes",
        "label": "string",
        "numberOfBytes": "32"
      },
      "t_uint256": {
        "encoding": "inplace",
        "label": "uint256",
        "numberOfBytes": "32"
      }
    }
  }
}